:020000040800F2
:1000000060070020A10100085B260008E924000821
:1000100059260008731200089B2B000800000000FE
:100020000000000000000000000000005F26000843
:1000300075120008000000005D2600086126000817
:10004000BB010008BB010008BB010008BB010008A0
:10005000BB010008BB010008BB010008BB01000890
:10006000BB010008BB010008BB010008BB01000880
:10007000BB010008BB010008BB010008BB01000870
:10008000BB010008BB010008BB010008BB01000860
:10009000BB010008BB010008BB010008BB01000850
:1000A000BB010008BB010008BB010008BB01000840
:1000B000BB010008BB010008B9260008BB0100080D
:1000C000BB010008BB010008BB010008BB01000820
:1000D000BB010008BB010008BB010008BB01000810
:1000E000BB010008BB010008BB01000800F002F8DA
:1000F00000F047F80AA090E8000C82448344AAF17B
:100100000107DA4501D100F03CF8AFF2090EBAE878
:100110000F0013F0010F18BFFB1A43F0010318473B
:10012000E834000008350000103A24BF78C878C1D0
:10013000FAD8520724BF30C830C144BF04680C60ED
:10014000704700000023002400250026103A28BF35
:1001500078C1FBD8520728BF30C148BF0B60704739
:10016000662903F06F81002070471FB500F02CFB5B
:1001700004000020002102F0B3FDE0601FBD10B5B7
:1001800010BD00F039FC1146FFF7EFFF02F040FD13
:1001900000F057FC03B4FFF7F2FF03BC00F09AFC39
:1001A0000948804709480047FEE7FEE7FEE7FEE70B
:1001B000FEE7FEE7FEE7FEE7FEE7FEE70448054947
:1001C000054A064B70470000B5260008ED00000800
:1001D0006001002060070020600300206003002011
:1001E0000FB4044910B503AA029800F0DBFA10BC62
:1001F0005DF814FB140000202DE9F05F89460446E9
:100200004FF0000ADFF824B1FB44C0F820A02046DC
:10021000E168884700287DD0252806D0D4E901214F
:100220009047206A401C2062F1E700255F46204687
:10023000E16888472028064607DB312E05D2B81929
:1002400010F8200C08B10543F1E7A80701D525F007
:100250000405C4F81CA00027C4F818A02A2E09D051
:10026000304602F0BFFC38B304EB8708303EC8F8D4
:10027000186019E059F8041B204604EB87029161CD
:10028000E1688847012F064618D1E069002820DA86
:1002900025F020051DE0D8F8180000EB800006EBE3
:1002A00040003038C8F818002046E1688847064604
:1002B00002F098FC0028EED1012F0AD02E2E08D192
:1002C0002046E16888477F1C0646022F45F020053E
:1002D000C4DBA069002803DA404245F00105A061B3
:1002E000E80701D025F01005A6B1A6F141001928B4
:1002F00002D8203645F400654A463146204625603E
:100300004D46FFF72DFF60B1012807D0ED1D25F008
:10031000070000E007E000F1080978E705F10409AB
:1003200075E730467AE7206ABDE8F09F5633000053
:100330004FF0000200B5134694469646203922BF7E
:10034000A0E80C50A0E80C50B1F12001BFF4F7AFC9
:10035000090728BFA0E80C5048BF0CC05DF804EBAB
:10036000890028BF40F8042B08BF704748BF20F819
:10037000022B11F0804F18BF00F8012B7047704717
:100380007047704770472DE9FF4F0C461E464FF0EF
:10039000FF378BB0D2E90001DDF860800A908A4611
:1003A000C1F30A5505B93D46002108464FF000004B
:1003B000BAF1000F00F4400005DA00EB80004FF4C2
:1003C000400101EA50004FEA9059B9F1010F00DDF8
:1003D000B9460A9850EA4A000ED044F61050A5F2E9
:1003E000FF3545432F14B8F1000F1ED07542291E6A
:1003F0001EDDC9F100021CE0B8F1010F4FF0000052
:1004000001D0302103E0F24305E02154401CB0420A
:10041000FBDB30460022002121540B99C1F80880F3
:10042000C1E900200FB0BDE8F08FBD1B6D1CDEE7F9
:100430004A4600DA694206A800F068FA06AB93E87B
:10044000070003AB83E8070050460A9900F049FB18
:100450008DE80700A0F500501F3800900398002D8C
:100460000ADD42F21F014A460844002303A9039013
:10047000684600F0B2FD09E0A0F500504A461F387A
:10048000002303A90390684600F0BCFD8DE8070037
:100490000004000C03D04FF0FF30410800E010468C
:1004A000B8F1000F03D00022009215461EE0751E21
:1004B00005D400F08DF9303262556D1EF9D5B34682
:1004C0000122084302D000227F1C04E0207830285B
:1004D00001D100227F1E002A099784D01DE0112D32
:1004E00007DA00F075F9303262556D1C50EA0102EE
:1004F000F5D1084302D00098C8B10EE00021681E73
:1005000005E0235C625C63542254401E491C814216
:10051000F7DBAB46A81B401E0990002004F80B0037
:100520000B98099AC0F80880C0E9002B7AE71126D9
:100530004FF0000857E72DE9F04F88460446D21DDA
:1005400022F0070191B0D1E90001CDE90A0102F0E2
:1005500025FB02460B98C00F01D02D2007E0206834
:10056000810701D52B2002E0202101EAC000032AE7
:10057000099001D0072A05DB03464146204600F0DA
:1005800085F90BE12078800601D5E06900E00620BE
:10059000B8F1650F814606D0B8F1660F18D0B8F1F2
:1005A000670F70D131E00020B9F1110F009001DB2D
:1005B000112301E009F101030AAA01A90CA8FFF720
:1005C000E2FEDDE90C70002609F10105834647E0F3
:1005D00001204B4600904FF000470AAA01A90CA841
:1005E000FFF7D1FEDDE90DB00C995D46002610B98C
:1005F00009F101000D18B9EB050003D4C0F1FF3675
:1006000009F10105A5EB09002BE0B9F1010F01DAB1
:100610004FF001090020B9F1110F0090484601DDAB
:10062000112300E003460AAA01A90CA8FFF7ABFEBC
:10063000DDE90C704D4600268346207800070AD479
:10064000AB4500DA5D4601A8012D04DD411911F822
:10065000011C302907D04F4502DA17F1040F04DAE4
:10066000012082460FE06D1EEEE7002F02DCED1B3D
:100670003E4403E0781CA84200DD7D1CB81B00F15D
:10068000010A4FF000472078000703D4AA4501DB98
:100690004FF0FF3A0021B7F1004F0DF143088DF8FC
:1006A000431024D002202B23002F01DA7F422D2378
:1006B0000A21021EA0F1010000DC5FB197FBF1FCF2
:1006C00097FBF1F201FB1C7C17460CF1300C08F88B
:1006D00001CDEEE7A8F1010003702188090501D5DD
:1006E000452100E06521A0F1010800F8011C0998EE
:1006F0000FA9A1EB0807FF1D00B10120411901EB73
:10070000EA70A1693844081A401EA0612078C0062A
:1007100002D42046AFF30080099828B1D4E9012122
:100720009047206A401C20622078C00622D52046CF
:10073000AFF300801EE0002E04DBB34502DD01A80C
:10074000805D00E03020D4E901219047206A401C00
:100750002062761CAAF101005FEA000A0AD100F0CB
:1007600033F8C0680168405CD4E901219047206AF1
:10077000401C2062281EA5F10105DCDC07E0D4E95D
:10078000012118F8010B9047206A401C2062381E96
:10079000A7F10107F3DC2046AFF30080032011B07E
:1007A00041E60000074B70B50D467B4400F05BF856
:1007B0000446284602F01DFA10B14FF0FF3070BD1C
:1007C000204670BD4B2400000048704720010020E7
:1007D00030B5B0F10A024FEA900E71F100034EEA13
:1007E000817EB0EB0E0061EB91014FEA101E4EEAE4
:1007F000017E10EB0E0041EB11114FEA102E4EEA74
:10080000016E10EB0E0041EB11214FEA104E4EEA43
:10081000014E10EB0E0041EB1141401841F1000177
:100820004FEAD00040EA41704FEAD10110EB800559
:100830004FEA810444EA907444EB01046D1944EBDF
:100840000404521BA3414FF0000348BF0A3200D5F5
:1008500030BD401C41F1000130BD000001694A1C5F
:1008600002610878704700B58FB0CDE901310021F1
:10087000059105497944CDE9031011466846FFF713
:10088000BBFC0FB000BD0000E5FFFFFF2DE9F0410C
:100890001F46044603260168072A01F4006004DBB2
:1008A00008B116A505E016A503E008B115A500E0FE
:1008B00015A521F010002060A069C01EA0610FB135
:1008C000401EA0612046AFF300804FB1D4E9012162
:1008D00038469047206A401C2062C01C206206E017
:1008E000206AFAE7D4E9012115F8010B9047761E3A
:1008F000F8D22046AFF30080BDE8F0814E414E00B3
:100900006E616E00494E4600696E66002DE9F04743
:10091000814616468AB0354878440DC88DE80D00EA
:1009200032487844801C03AC0DC884E80D0041F6C1
:100930009B300844372190FBF1F290FBF1F5A5F1D3
:10094000800501FB12041B3C02D56442012000E03B
:100950000020DFF898A080460027FA44AAF1BE0ADA
:100960000EE0E0070AD03246684607EB4701012354
:100970000AEB810100F046FB8DE8070064107F1C44
:10098000002CEED1194F7F44AE3F19E0E80715D097
:1009900007EB04100DF1180A90E80E008AE80E002B
:1009A000C068F04201D1981908903246012306A987
:1009B00003A800F027FB03AB83E807006D10641C5D
:1009C000002DE3D14FF0010332466946B8F1000F24
:1009D00003A802D000F001FB01E000F013FBC9E91D
:1009E0000001C9F808200AB0BDE8F087D42C000047
:1009F00000487047000100207546FFF7F9FFAE463A
:100A000005006946534620F00700854618B020B51A
:100A1000FFF7D4FBBDE820404FF000064FF0000781
:100A20004FF000084FF0000B21F00701AC46ACE896
:100A3000C009ACE8C009ACE8C009ACE8C0098D4603
:100A4000704710B50446AFF300802046BDE8104063
:100A5000FFF7A0BB4FF0013C50F8042B51F8043BCA
:100A60009A4221D1A2EB0C03934313EACC1317D182
:100A700050F8042B51F8043B9A4215D1A2EB0C0319
:100A8000934313EACC130BD150F8042B51F8043BD9
:100A90009A4209D1A2EB0C03934313EACC13DBD0A7
:100AA0004FF00000704700BFD01A01BAB1FA81F1CF
:100AB00001F0180122FA01F0CB40C1F12001DBB2B4
:100AC000C0B2C01A2CFA01F3D11A914311EAC31132
:100AD000E6D1704701491820ABBEFEE726000200B0
:100AE00070475FEA400C08BF91F0000F4FEA8C237B
:100AF0004FEAC12243EA51514FEA1C5018BF00F59A
:100B0000F0404FEA300018BF41F000415FEA6C5CF2
:100B100000F02980BCF1FF3F08BF40F080407047E3
:100B2000130C06BF12044FF0100C4FF0000C130E04
:100B300004BF12020CF1080C130F04BF12010CF1D8
:100B4000040C930F04BF92000CF1020CD30F04BFEE
:100B500052000CF1010C11464FF00002A0F11F00F1
:100B6000A0EB0C00704711F0004F08BF704731F048
:100B700000413FF4D5AF0B0C06BF09044FF0100C39
:100B80004FF0000C0B0E04BF09020CF1080C0B0F08
:100B900004BF09010CF1040C8B0F04BF89000CF198
:100BA000020CCB0F04BF49000CF1010CCCF1200367
:100BB000A0EB0C0022FA03F302FA0CF241EA030163
:100BC00000F10100704720F07F4C80EA030023F021
:100BD0007F47ACEB070303F57C5300F0004003F1C3
:100BE000FF032DE980494FEA154B09B44FEA14433E
:100BF00025EA0B4E24EA03480FF2042606EB1327DE
:100C000049083E785FEA320203FB0667C7F5000732
:100C100007FB06F64FEA54374FEAD64606F10206BE
:100C200007FB066CCCF1005C4FEA1C472CEA074C32
:100C300007FB06F40CFB06F504EB15464FEA961687
:100C400034BF00204FF000404FEAD13706FB07FCCD
:100C50004FEA1C4C0CFB0BF7D21B03FB0CF761EBB0
:100C600007010CFB0EF7B0EB074072EB17420CFBD1
:100C700008F734BFA2EB0742B2EB074261EB174122
:100C80004FEA0C444FEA910706FB07FC4FEA1C4C65
:100C90000CFB0BF7B0EBC74072EB573203FB0CF7C2
:100CA00034BFA2EBC742B2EBC74261EB57310CFB3A
:100CB0000EF7B0EBC70072EB57720CFB08F734BFAE
:100CC000A2EBC702B2EBC70261EB5771039F4FEA79
:100CD000816141EA921104EBCC044FEAD1374FEA2B
:100CE000826206FB07FC42EA90124FEA80604FEAFC
:100CF0001C4C0CFB0BF7D21B03FB0CF761EB070141
:100D00000CFB0EF7B0EB074072EB17420CFB08F739
:100D100034BFA2EB0742B2EB074261EB17414FEA47
:100D20008C554FEA910704EB9C2406FB07FC4FEA25
:100D30001C4C0CFB0BF7B0EBC74072EB573203FBBC
:100D40000CF734BFA2EBC742B2EBC74261EB57319D
:100D50000CFB0EF7B0EBC70072EB57720CFB08F7F9
:100D600034BFA2EBC702B2EBC70261EB577115EBC0
:100D70004C254FEA816141EA92114FEA82624FEAC3
:100D8000D13742EA901206FB07FC44F100044FEA17
:100D900080604FEA1C4C0CFB0BF7D21B03FB0CF7DB
:100DA00061EB07010CFB0EF7B0EB074072EB17424B
:100DB0000CFB08F734BFA2EB0742B2EB074261EB32
:100DC000174115EB1C154FEA813141EA92414FEA78
:100DD000823242EA90424FEA80304FEA0C7644F188
:100DE000000448EA03434EEA0B484FF0000EB2EB12
:100DF000080C71EB030724BF624639464EEB0E0E1A
:100E00004FF0000B0018524149414BEB0B0BB2EB7A
:100E1000080C71EB03077BF1000B24BF62463946D7
:100E20004EEB0E0E4FF0000B0018524149414BEBB8
:100E30000B0BB2EB080C71EB03077BF1000B24BF2B
:100E4000624639464EEB0E0E51EA020718BF46F0D5
:100E5000010616EB0E7655F1000254F1000103D5A0
:100E6000BDE88901BDE80088BDE88901BDE800480A
:100E7000B619524141EB0101A3F101037047808093
:100E80007F7E7D7C7B7A79787776767574737271E4
:100E900071706F6E6E6D6C6C6B6A6A69686867669C
:100EA00066656464636362616160605F5F5E5E5D2E
:100EB0005D5C5C5B5B5A5A595958585757565655A2
:100EC00055555454535352525251515050504F4F04
:100ED0004F4E4E4D4D4D4C4C4C4B4B4B4A4A4A4954
:100EE0004949484848474747474646464545454497
:100EF0004444444343434342424242414141002B24
:100F00009C4630D477002BD01CB54FEA370703B48A
:100F10004FF010004FF01001BAF1000F06D0BCF1F5
:100F2000000FDCBF40F0080040F008014FF0000067
:100F30000FBCBDE810400BF1010BBBF1010F08BF66
:100F40005FEA170722BF12F1010211F101014FF010
:100F5000004143F1000300F0004043EA0000704705
:100F6000F9D35708D0E746EA064613F1400F4FEA97
:100F700016461FDD13F1200FDFBF16430A4600217E
:100F800020335B42BED0C3F1200746EA064602FA90
:100F900007F74FEA164646EA0706C3F1200722FA8A
:100FA00003F201FA07F721FA03F14FF0000342EAD6
:100FB0000702A7E746EA020646EA06464FEA164651
:100FC00046EA0106BCBF46EA0646360C4FF000036F
:100FD0004FF000024FF0000194E72DE9804C9A4653
:100FE000934670B491E8380007C831EA400C48BF16
:100FF00034EA430C03D5FFF7E6FDFFF780FFF0BCB2
:10100000BDE8008C2DE9804C9A46934670B491E877
:10101000380007C810F0804F08BF13F0804F03D18D
:1010200000F005F8FFF76BFFF0BCBDE8008C20F086
:101030007F4780EA030023F07F4C07EB0C03A3F506
:101040007C5300F00040A3F1FE0392F0000F00F08B
:10105000B38095F0000F00F077802DE901494FEA49
:1010600011404FEA144621EA004800FB06FC24EA3E
:10107000064708FB06F607FB08F800FB07F718EB26
:1010800006484CEB164C4FEA124B18EB07484FEA58
:1010900015464CEB174022EA0B4E0BFB06FC25EAEB
:1010A00006470EFB06F607FB0EFE0BFB07F71EEBD3
:1010B000064E4CEB164C4FF000061EEB074E4CEB69
:1010C000174B18EB0B0840F1000018EB0E0B58EB18
:1010D000000840F100008F1A4FF000013CBFC943E7
:1010E000661B14BFB5EB040C00213CBFC943F61BC3
:1010F0004FEA17444EEA8E0E27EA04454FEA1C4792
:1011000004FB07622CEA074C05FB07F70CFB05F60E
:1011100004FB0CFC16EB074642EB174216EB0C46A1
:1011200042EB1C421BEB060658EB0202414146EA29
:101130009E0601D5BDE80189B619524141EB010176
:10114000A3F10103BDE801894FEA14454FEA1147B5
:1011500024EA054621EA074C05FB07F406FB07F7DE
:101160000CFB06F105FB0CFC11EB074144EB1744AB
:101170004FEA124711EB0C4144EB1C4422EA074CA6
:1011800005FB07F206FB07F70CFB06F605FB0CFC5C
:1011900016EB074642EB174216EB0C4642EB1C459A
:1011A0006A1854F1000148BF7047B619524141EB2B
:1011B0000101A3F10103704795F0000F37D04FEA0A
:1011C00011424FEA144721EA024624EA074C02FB87
:1011D00007F106FB07F70CFB06F402FB0CFC14EB13
:1011E000074441EB17414FEA154714EB0C4441EB20
:1011F0001C4125EA074C02FB07F506FB07F70CFB31
:1012000006F602FB0CFC16EB074645EB174516EB02
:101210000C4645EB1C42121951F1000148BF7047C2
:10122000B619524141EB0101A3F1010370474FEAA6
:1012300014454FEA114724EA054621EA074C05FB0D
:1012400007F106FB07F70CFB06F24FF0000605FB63
:101250000CFC12EB074241EB174112EB0C4251EB35
:101260001C4148BF7047921841EB0101A3F10103F3
:101270007047FEE77047000070B5044600F0FEF8C6
:101280000546601C02D004480078044400F0F6F8DB
:10129000401BA042FAD370BD180000202DE9F84F82
:1012A000DFF8B8910024A9F1040B23460F2709F1B8
:1012B000040AABF1040EC9E00125A5402A40AA4268
:1012C0007DD1674ED1F804C0ACEB0608B44532D0EE
:1012D00014DCBCF1030F3AD009DCBCF1000F2AD0BA
:1012E000BCF1010F1CD0BCF1020F31D11DE0BCF1EB
:1012F000110F17D0BCF1120F2AD119E0B8F5881FD1
:1013000019D006DCB8F5803F15D0B8F5801F1FD185
:1013100011E0B8F5001F0ED0B8F5041F18D10AE08F
:10132000CB6815E0CB681B1D12E0CB6808330FE0DB
:10133000CB680C330CE08B682BB1012B4FF008030A
:1013400003D0456104E0042302E0056100E00023CE
:10135000FF2A01D8064601E000F104064FEA8405A1
:1013600001D9A5F12005D6F8008007FA05FC28EA86
:101370000C0803FA05F548EA0508C6F800804D6830
:10138000ED0062D5374DAE6946F00106AE61AD693C
:1013900024F0030605F001050095334D06EB050C1E
:1013A000DCF80850A607360F07FA06F825EA080504
:1013B000DFF8B880404503D14FF0000817E044E063
:1013C000DFF8AC80404502D14FF001080FE0DFF8B4
:1013D000A480404502D14FF0020808E0DFF8988071
:1013E000404502D14FF0030801E04FF0040808FA2D
:1013F00006F848EA0508CCF808804D68D9F800607E
:10140000ED024D4601D5164300E096432E604D682F
:10141000DAF80060AD02554601D5164300E0964368
:101420002E604D68DBF80060AD035D4601D51643C4
:1014300000E096432E604D68DEF80060ED037546CF
:1014400001D5164300E096432E60641C0D682A46C1
:10145000E5407FF431AFBDE8F88F0000080401409B
:10146000000011100010024000000140000801407F
:10147000000C014000100140001401400148806848
:10148000704700001800002002488168027811446B
:101490008160704718000020074810B5016841F0CE
:1014A00010010160032000F075F80F2000F006F82D
:1014B00000F024F8002010BD0020024070B50D4D52
:1014C00004464FF47A712878B1FBF0F00A490968B4
:1014D000B1FBF0F000F0DCFA48B9102C07D2002282
:1014E0002146501E00F036F800206C6070BD0120CF
:1014F00070BD000018000020240000200C4808B532
:10150000816941F001018161816901F0010100916E
:10151000C16941F08051C161C06900F08050009004
:101520000448416821F0E06141F00071416008BD6C
:101530000010024000000140002809DB00F01F02FB
:10154000012191404009800000F1E020C0F8001125
:1015500070470000F0B40E4B1B680C46C3F3022327
:10156000C3F10705042D00D90425191D072901D24F
:10157000002300E0DB1E012606FA05F1491E21408A
:1015800099409E40761E16403143F0BC01F01ABBD4
:101590000CED00E0064900F0070208684FF6FF0373
:1015A000184040EA0220034A1043086070470000D8
:1015B0000CED00E00000FA052DE9F0470F460500AC
:1015C00061D0434E306800F00700B84209D230685D
:1015D00020F0070038433060306800F00700B84260
:1015E00051D128683B4C810712D5400703D560686C
:1015F00040F4E06060602878000703D5606840F43C
:10160000605060606068A96820F0F0000843606086
:101610002878C00728D06868012810D021680228DF
:1016200010D0890700292EDA616821F003010143F7
:101630006160FFF723FF804641F288390DE02168A1
:101640008903EFE78901EDE7FFF718FFA0EB080139
:10165000494502D90320BDE8F0876068696800F059
:101660000C00B0EB810FEFD1306800F00700B842FA
:101670000BD9306820F0070038433060306800F044
:101680000700B84201D00120E5E72878400705D5DA
:101690006068E96820F4E06008436060287800072B
:1016A00006D56068296920F4605040EAC100606096
:1016B00000F038F86168084AC1F30311515CC84072
:1016C0000649086006480068FFF7F8FE0020C2E7F8
:1016D00000200240001002404A350008240000208B
:1016E0001C0000200448054900684968044AC1F309
:1016F0000221515CC84070472400002000100240C5
:101700005A3500080448054900684968044AC1F38D
:10171000C221515CC84070472400002000100240E4
:101720005A3500080E4A51680E4801F00C03042B8C
:1017300011D0082B0FD10C48C1F38343C903C05CFF
:101740000AD55168084AC1F34041921E515C054ACE
:101750005043B0FBF1F07047044948437047000024
:101760000010024000127A003A35000800093D00DE
:101770002DE9F84F040070D02078C04DC00749D043
:101780006868C0F38100012807D06868C0F3810051
:10179000022809D16868C00306D52868800339D5B6
:1017A00060680028E7D035E06068B0F5803F0BD076
:1017B00010B1B0F5A02F11D0286820F48030286037
:1017C000286820F4802002E0286840F480302860F7
:1017D000606890B1FFF752FE06460AE0286840F4C0
:1017E00080202860F0E700BFFFF748FE801B6428D8
:1017F00073D828688003F7D50CE0FFF73FFE064654
:1018000005E000BFFFF73AFE801B6428F0D8286887
:101810008003F7D420789A4E80074FF001094FF0EB
:10182000000839D5686810F00C0F07D06868C0F35D
:101830008100022809D16868C00306D4286880079F
:1018400014D52069012808D110E02069B0B1C6F88C
:101850000090FFF713FE074605E00AE1FFF70EFED2
:10186000C01B0228C4D828688007F7D5286861699A
:1018700020F0F80040EAC10028600DE0C6F80080C2
:10188000FFF7FCFD074604E0FFF7F8FDC01B022848
:1018900023D828688007F7D4207800072CD579480A
:1018A000A169D9B1C0F80090FFF7E8FD074604E050
:1018B000FFF7E4FDC01B02280FD8686A8007F7D540
:1018C00071484FF4FA510068B0FBF1F0009000BF8E
:1018D0000098411E0091FAD20EE080E0C0F800802E
:1018E000FFF7CCFD074604E0FFF7C8FDC01B022848
:1018F00075D8686A8007F7D42078400760D5E86912
:101900000027C00008D4E86940F08050E861E86929
:10191000012700F0805000905C480168C90513D48D
:101920000168834641F480710160FFF7A7FD82469C
:1019300006E000BFFFF7A2FDA0EB0A0064284ED826
:10194000DBF80000C005F5D5E06801280AD008B131
:10195000052813D0286A20F001002862286A20F0A8
:10196000040002E0286A40F001002862E06841F2C9
:10197000883B98B1FFF782FD82460BE0286A40F071
:1019800004002862EEE700BFFFF778FDA0EB0A0134
:1019900059455AD8286A8007F6D50CE0FFF76EFD46
:1019A000824605E0FFF76AFDA0EB0A0159454CD8D5
:1019B000286A8007F6D41FB1E86920F08050E861FA
:1019C000E06988B36968C1F38101022944D0022823
:1019D000C6F8608004D0FFF751FD044638E034E0DB
:1019E000FFF74CFD074604E0FFF748FDC01B022847
:1019F0002BD828688001F7D4206AB0F5803F05D144
:101A00006868A16820F4003008436860D4E90801E0
:101A10000843696821F4741108436860C6F860904F
:101A2000FFF72CFD044606E025E000BFFFF726FD8A
:101A3000001B022809D828688001F7D51BE000BFE9
:101A4000FFF71CFD001B022802D90320BDE8F88F18
:101A500028688001F4D40EE00128F7D06868226A73
:101A600000F48031914204D1616A00F47010884220
:101A700001D00120EAE70020E8E700000010024062
:101A800000004242800442422400002000700040D6
:101A900010B5401EB0F1807F01D3012010BD4FF082
:101AA000E02460610F21601701F08CF80020A06134
:101AB00007202061002010BD7047704770B590F876
:101AC0003C20012A26D0012480F83C40022280F8E4
:101AD0003D2003685A689D6822F070060A68324308
:101AE0005A600D4B02689A4208D0B2F1804F05D07F
:101AF0000A4B9A4202D00A4B9A4204D1496825F017
:101B000080031943916080F83D40002180F83C102B
:101B1000084670BD022070BD002C0140000400404A
:101B20000008004010B5040003D094F83D0010B147
:101B300007E0012010BD002084F83C00204600F0A2
:101B40001FF8022084F83D00211D206800F0BAFD36
:101B5000012084F8460084F83E0084F83F0084F8B1
:101B6000400084F8410084F8420084F8430084F87F
:101B7000440084F8450084F83D00002010BD0000BA
:101B800000B585B000210091019102910391184A9E
:101B900001681848914209D1C16941F00201C1614F
:101BA000C06900F00200049005B000BD124A9142E5
:101BB000FAD1C16941F00401C161C16901F00401B8
:101BC0000491816941F0080181618069694600F0F2
:101BD00008000490402000900848FFF75FFB0022B7
:101BE00011461E20FFF7B6FC1E20FFF7A5FCDBE721
:101BF000000400400010024000080040000C0140BA
:101C000070B5044690F83C000025012817D0012645
:101C100084F83C60022084F83D002068826822F04D
:101C2000770222F47F4282600868502838D00DDCA9
:101C300020284FD005DC90B3102811D14AE00220B3
:101C400070BD302846D040280AD13BE060282FD014
:101C500070280DD0B0F5805F03D0B0F5005F12D0D2
:101C6000012584F83D60002084F83C00284670BDC2
:101C7000CB68D1E90121206800F06DFD2068816802
:101C800041F0770109E0CB68D1E90121206800F03B
:101C900062FD2068816841F480418160E1E719E0DC
:101CA000CA684968206800F051FE5021206806E0AB
:101CB000CA684968206800F087FE6021206800F04B
:101CC00054FDCEE7CA684968206800F03FFE402115
:101CD0002068F4E7226801461046F0E770B5054633
:101CE000007F012826D10021284600F002FB124C7B
:101CF00004212060284600F0FCFA60602168081A80
:101D0000A06001F095F900220C4B01F039F800F0C9
:101D1000FDFF0B49E06001F0C9FA01F09BFA0022D7
:101D2000084B01F099F94FF0FF3201F0BFFB00F0D2
:101D3000EDFF206170BD00000000002080842E4176
:101D40000000AA43000059402DE9F041054690F8F3
:101D50003C0000260C46012810D0012085F83C00EC
:101D600072B1042A1CD0082A2CD00C2A50D001268B
:101D7000002085F83C003046BDE8F0810220FBE7FA
:101D8000D4E90012E368286800F0F2FD2868816950
:101D900021F00C01816128688169A26811430FE07C
:101DA000D4E90012E368286800F020FE2868816901
:101DB00021F44061816128688169A26841EA0221B9
:101DC0008161D5E72868D4E9002C277B036A016A82
:101DD00021F480710162C16923F4007321F00301D1
:101DE00041EA0C0121F0F00C39074FF400774CEA7E
:101DF000116107EA02221A43C16102622868C169BF
:101E000021F00C01C1612868C169A26811432BE06F
:101E10002868D4E90021E768036AD0F820C02CF4D0
:101E2000805CC0F820C0D0F81CC023F400532CF410
:101E3000407C4CEA012121F4704C4FF6FF7101EA1D
:101E400007314FF4005741EA0C0107EA02321A4306
:101E5000C16102622868C16921F44061C1612868DA
:101E6000C169A26841EA0221C16181E710B504009D
:101E700003D094F83D0010B107E0012010BD002010
:101E800084F83C00204600F01EF8022084F83D0053
:101E9000211D206800F016FC012084F8460084F81B
:101EA0003E0084F83F0084F8400084F8410084F844
:101EB000420084F8430084F8440084F8450084F824
:101EC0003D00002010BD704730B50446002551B1DB
:101ED00004290DD0082910D094F8410094F8452029
:101EE000012811D10EE094F83E0094F84220F7E763
:101EF00094F83F0094F84320F2E794F8400094F8F7
:101F00004420EDE7012A01D0012030BD022059B163
:101F1000042912D0082919D084F8410084F845001A
:101F20000C2938D0012534E084F83E0084F84200C2
:101F30002068C26842F0020210E084F83F0084F892
:101F400043002068C26842F0040207E084F84000C1
:101F500084F844002068C26842F00802C26001228E
:101F6000206800F0EBFB0E492068884208D0B0F1F1
:101F7000804F05D00B49884202D00B49884204D1DA
:101F8000816801F00701062903D0016841F00101D1
:101F90000160284630BD2068C26842F01002DDE7CB
:101FA000002C014000040040000800402DE9F041F1
:101FB00004460068C66805694FF00007A90713D5F5
:101FC000B10711D5F91E01610120207720688069D1
:101FD0008007204602D0FFF781FE04E000F0A4F85D
:101FE000204600F036F92777680716D5700714D514
:101FF00021686FF004000861022020772068806962
:1020000010F4407F204602D0FFF768FE04E000F0A5
:102010008BF8204600F01DF92777280715D53007E3
:1020200013D521686FF0080008610420207720682C
:10203000C0698007204602D0FFF750FE04E000F0A0
:1020400073F8204600F005F92777E80616D5F00664
:1020500014D521686FF010000861082020772068EF
:10206000C06910F4407F204602D0FFF737FE04E03D
:1020700000F05AF8204600F0ECF82777E80708D07F
:10208000F00706D021686FF001000861204600F0DB
:102090002FF9280608D5300606D521686FF0800094
:1020A00008612046FFF708FD680608D5700606D5CA
:1020B00021686FF040000861204600F05AF9A80638
:1020C0000AD5B00608D521686FF0200008612046C7
:1020D000BDE8F041FFF7F1BCBDE8F08100B585B087
:1020E0000021009101910291039100680B498842FF
:1020F00011D10B48816941F0040181618069694611
:1021000000F0040004904020009002200190039011
:102110000448FFF7C3F805B000BD0000000400400C
:102120000010024000080140704770B5044690F866
:102130003C0000260D4601280FD0012084F83C0009
:102140006AB1042A1DD0082A2FD00C2A3FD00126BC
:10215000002084F83C00304670BD022070BD20682D
:1021600000F00CFB2068816941F008018161206862
:10217000816921F004018161206881692A69114324
:1021800011E0206800F022FB2068816941F40061C1
:1021900081612068816921F48061816120688169A1
:1021A0002A6941EA02218161D2E7206800F03AFB06
:1021B0002068C16941F00801C1612068C16921F04E
:1021C0000401C1612068C1692A69114311E02068D6
:1021D00000F054FB2068C16941F40061C1612068CE
:1021E000C16921F48061C1612068C1692A6941EA3D
:1021F0000221C161ACE710B5040003D094F83D00A2
:1022000010B107E0012010BD002084F83C002046FA
:1022100000F01EF8022084F83D00211D206800F027
:1022200051FA012084F8460084F83E0084F83F000B
:1022300084F8400084F8410084F8420084F84300A8
:1022400084F8440084F8450084F83D00002010BD67
:102250007047704710B50446022249B104290ED0D8
:10226000082913D094F84100012816D0012010BD90
:1022700094F83E000128F9D184F83E200FE094F84C
:102280003F000128F2D184F83F2008E094F8400094
:102290000128EBD184F8402001E084F8412001229C
:1022A000206800F04BFA0F492068884203D1426C45
:1022B00042F4004242642068884208D0B0F1804F66
:1022C00005D00949884202D00849884204D1816872
:1022D00001F00701062903D0016841F00101016006
:1022E000002010BD002C0140000400400008004008
:1022F00070470246002041B1042909D008290AD0BC
:102300000C2901D11068006C70471068406B704751
:102310001068806B70471068C06B704770B50446DA
:1023200090F83C00012812D0012584F83C5002208E
:1023300084F83D00204600F0C3FA01004FF0000091
:1023400007D084F83D5084F83C00012070BD022085
:1023500070BD2168CA6822F04002CA602168CA685C
:1023600022F48042CA6084F83D5084F83C0000208A
:1023700070BD704770B5040004D094F8410000258A
:1023800010B106E0012070BD84F84050204600F0F6
:1023900023F8242084F841002068C16821F400510A
:1023A000C160204600F064FB2068016921F490417F
:1023B00001612068416921F02A0141612068C168FA
:1023C00041F40051C1606564202084F8410084F824
:1023D00042006563002070BD30B585B000240094D4
:1023E00001940294039400681449884223D114484C
:1023F000C16941F40031C161C16901F40031049146
:10240000816941F00401816180690E4D00F0040092
:10241000049004200090022001900320039069465C
:102420002846FEF73BFF0820CDE900046946284610
:102430000294FEF733FF05B030BD000000440040B9
:1024400000100240000801402DE9F843044690F8CE
:102450004100984616460D46202802D00220BDE8CD
:10246000F88385B17EB100206064212084F84100AA
:10247000FFF704F8A6848146E684A0682027B0F51B
:10248000805F02D003E00120E9E7206910B12E4609
:1024900000250EE000260CE08021204600F044FBE1
:1024A000A8B9C6B116F8010B21684860E08C401E3F
:1024B000E084E08C4B464FF00002CDF8008000280D
:1024C000EAD14FF04001204600F02EFB40B184F8E5
:1024D00041700320C3E735F8020BC0F30800E3E7BF
:1024E00084F841700020BAE7FEE7000010B58EB016
:1024F00000240794089409940A940B941C216846BC
:102500000C94FDF715FF1F481D4901600721C0E924
:1025100001144CF24F31C0E903148461FFF702FB50
:1025200008B172B6FEE74FF48050079007A915482E
:10253000FFF766FB08B172B6FEE71248FFF75BFED5
:1025400008B172B6FEE70B940BA90E480C94FFF786
:10255000B5FA08B172B6FEE7702000904CF2443034
:10256000CDE901040022694606480494FFF7DDFD29
:1025700008B172B6FEE70348FFF7B0FD0EB010BD1C
:10258000000400402800002030B58FB000240994DA
:102590000A940B94142104A80C94FDF7C9FE2D484D
:1025A00003940094019402940D9429490E940160BF
:1025B0000721C0E901144FF6FF71C0E903148461DB
:1025C000FFF7B0FA08B172B6FEE74FF480500990F9
:1025D00009A92048FFF714FB08B172B6FEE71D48B1
:1025E000FFF744FC08B172B6FEE704200490022510
:1025F0005020CDE90654059004A916480894FFF729
:102600008DFE08B172B6FEE701200095CDE9010408
:10261000002269460F480394FFF796FB08B172B693
:10262000FEE7042269460B48CDE90045FFF78CFB25
:1026300008B172B6FEE70D940DA906480E94FFF797
:102640003DFA002801D072B6FEE70FB030BD0000A1
:102650000008004070000020FEE7FEE7704770476A
:10266000FEF712BF10B590B028216846FDF760FE56
:1026700014210AA8FDF75CFE0220009001200490BE
:1026800010200024059007946846FFF771F808B100
:1026900072B6FEE70F20CDE90A040C940D940021D8
:1026A0000AA80E94FEF788FF002801D072B6FEE754
:1026B00010B010BD704700000148FFF777BC000064
:1026C00070000020F0B50268194B1A4C1A4D4FF0FB
:1026D0008047984205D0B84203D0A04201D0A8421A
:1026E00003D122F070064A683243984205D0B842BE
:1026F00003D0A04201D0A84203D122F44074CA689A
:1027000022434C6922F08002224302608A68C2623E
:102710000A688262984201D109690163012141611D
:102720000169C90703D0016921F001010161F0BD10
:10273000002C0140000400400008004010B501F0EA
:102740001F030121046A99408C430462016A9A4084
:102750001143016210BD10B5846842EA032224F4DB
:102760007F440A432243826010BD826822F07002D7
:102770000A4342F0070181607047000030B5036AE8
:10278000026A22F0010202624268846924F0730541
:102790000C682C4323F002058B682B430A4DA8429A
:1027A0000BD123F00805CB6822F440722B434D690E
:1027B00023F0040315438A692A434260846149680F
:1027C0004163036230BD0000002C014030B5026A55
:1027D000036A23F010030362436884690D6824F4DC
:1027E000E64444EA05248D6822F0200242EA0512FC
:1027F0000B4DA8420ED1CD6822F0800242EA0512AC
:102800004D6923F4406343EA85038D6922F0400259
:1028100043EA85034360846149688163026230BD95
:10282000002C014030B5036A026A22F48072026211
:102830004268C46923F4007324F073050C682C43C8
:102840008D6843EA05230C4DA8420ED1CD6823F4D0
:10285000006343EA05234D6922F4405242EA05121F
:102860008D6923F4806342EA05124260C4614968BD
:10287000C163036230BD0000002C014030B5046A22
:10288000026A22F4805202624268C3690D6823F42E
:10289000E64343EA05238D6824F4005444EA0534F2
:1028A000064DA84204D14D6922F4804242EA8512C5
:1028B0004260C36149680164046230BD002C01407C
:1028C00070B5036800249A6822F070054A682A43AC
:1028D00022F007050A682A439A604A6812F00F0F2F
:1028E00031D11211082A2ED2DFE802F02E2E2E2E20
:1028F0000B2127040B69D1E902210068FFF72BFFA8
:1029000022E00A68052A10D00268136A156A25F0C9
:102910000105156202689569096925F0F00545EA27
:1029200001119161006803620EE0012070BD0A6927
:102930008968006800F00AF806E00A69896800689A
:1029400000F042F800E00124204670BD10B5036A93
:10295000046A24F001040462846924F0F00444EA67
:10296000021423F00A020A438461026210BD0000CF
:1029700070B5056A046A24F00104046284690F4E8C
:10298000B04208D0B0F1804F05D00D4EB04202D019
:102990000C4EB04203D124F00304144301E044F090
:1029A00001041A0724F0F00444EA126225F00A0335
:1029B00001F00A0119438261016270BD002C0140DF
:1029C000000400400008004010B5036A046A24F0C7
:1029D00010040462846923F0A00324F4704444EAE0
:1029E000023243EA01118261016210BD30B5046A0E
:1029F000056A25F010050562856925F4407545EAEC
:102A0000022222F470454FF6FF7202EA033224F0EC
:102A1000A0032A43A02404EA011119438261016240
:102A200030BD01680C3151E8002F22F4907241E86A
:102A30000023002BF5D10168143151E8002F22F05A
:102A4000010241E80023002BF5D1016B012909D1D6
:102A500001680C3151E8002F22F0100241E80023F8
:102A6000002BF5D1202180F842100021016370472E
:102A700070B5044600680169E26821F440511143D1
:102A800001612169A0680843616908432168CA6837
:102A900041F20C639A430243CA6020684169A2690B
:102AA00021F44071114341611E492068884202D1DE
:102AB000FEF728FE01E0FEF715FE00EBC00101EB7A
:102AC0000012606864218000B2FBF0F3B3FBF1F305
:102AD0006FF018067343B2FBF0F5B2FBF0F605EBAE
:102AE0008305322303EB0515B5FBF1F5B6FBF1F6D3
:102AF00005F0F00505EB0615B2FBF0F6B2FBF0F0C1
:102B0000B0FBF1F06FF01802504306EB800003EBCE
:102B10000010B0FBF1F0216800F00F00284488603D
:102B200070BD0000003801402DE9F8439846174673
:102B30000D460446089E24E0701C22D0FEF79EFC41
:102B4000A0EB0800B0421AD8CEB12068C16849078E
:102B500017D5802D15D0402D13D00168C943090722
:102B60000FD401680025406800902046FFF759FF08
:102B70000820606484F840500120BDE8F8830320F9
:102B8000FBE72068006835EA000004D00020B84266
:102B9000D2D00020F1E70120F9E7FEE7490050EA32
:102BA000C12018BF04204A0D18BF40F0010040F2B8
:102BB000FF72B2EB515F08BF40F00200012808BF6E
:102BC000052070470907090E002804DB00F1E0200A
:102BD00080F80014704700F00F0000F1E02080F84A
:102BE000141D704730380A2801D201207047002098
:102BF000704700207047000013B54FF6FF730122A5
:102C000069460248FFF720FC00981CBDB800002070
:102C100008B5FEF741FCFFF725FD2748816941F023
:102C200020018161816901F020010091816941F0F9
:102C300004018161816901F004010091816941F021
:102C400008018161806900F008000090FFF74EFCE8
:102C5000FFF79AFC1A4819490C2201604FF4E13140
:102C6000416000218160C160C0E904128161C161DD
:102C7000FFF780FB08B172B6FEE7114800219038DB
:102C8000FFF7E8FA0E4800214838FFF71DF90C4815
:102C900004214838FFF718F90A4C4FF47A75206977
:102CA00000F0D8FA02460B4607A0FDF799FA28462D
:102CB000FEF7E2FAF3E70000001002400044004093
:102CC000B80000200000002064697374616E6365C1
:102CD000203D2025302E336620636D0D0A00000054
:102CE00010B500290AD00878002807D00548784494
:102CF000FDF7B0FE002801D0002010BD0248784446
:102D000010BD00003A0900003209000021F0004225
:102D1000A2F16052B2F5801F01F0004328BFD2F14A
:102D20007F6C0BD95FEA001C43EAC20242EB507091
:102D300018BF704728BF20F001007047B2F5801F10
:102D4000BCBF184670474FEA410C1CF5001F02D269
:102D5000084600F072BB70B500F028FA0000008948
:102D6000FFF7F6BF4FF00040A0F58000704700006D
:102D700002494FF0000000F067BB00BF0000F87F81
:102D80002DE9C04130B4DFF8A0C23CEA111418BFED
:102D90003CEA131400F0EC8081EA03051CEA1114EC
:102DA00044EAD57418BF1CEA131500F0C780A4EBE1
:102DB00005044FF0004545EAC12145EAC32341EA35
:102DC000505143EA525304F17F74994204F50034A0
:102DD0004FEAC0204FEAC22208BF904200F09C8018
:102DE0004FEA13650FF24016765D4FEA134506FB76
:102DF00005F7C7F1807706FB07F74FEAD737A7FB40
:102E000003687642C8F58038A7FB06CE38BFA8F124
:102E1000010807FB08E64FF0000EA6FB028CE6FB5C
:102E200003CEDCF1000CCEF1004E38BFAEF1010E46
:102E3000A6FB0C584FF000074FF00005E6FB0E878D
:102E4000A1FB08C6A0FB07CE16EB0E0645F1000558
:102E5000E1FB076515F1E04E7EBFA4F580345FEA23
:102E600046066D4116F1800745F100054FEA172728
:102E70004FEA066647EA0567A6F1DE46B6F1805FCF
:102E80004FEA15251FD9384624F0010C05EBC47113
:102E9000BCF1FE6F01EB0C1102D8F0BCBDE8008163
:102EA00024425CBF01F5801E9EEAC47F02D4F0BCC0
:102EB000BDE80081244238D4F0BCA1F1C041BDE896
:102EC000004100F0C1B94FEAD22242EA43524FEA30
:102ED000D323A7FB02864FEAD02040EA415007FBEC
:102EE00003661EEA0E0F4FEAD12105FB026658BFAA
:102EF000A6EB0056B6EB00564FEA520E4EEAC37EE2
:102F000018EB0E0E56EB530EBDD518EB02085E41C2
:102F10007F1C55F10005B6E74FF480154FF0000710
:102F20004FF000064FF00008ADE7F0BC4FF0000096
:102F300001F1C04101F00041BDE8008111EA0C1F20
:102F40000CEA131500D00CE013EA0C1F00F02580EA
:102F50004FF00000F0BC81EA030101F00041BDE840
:102F60000081F0BCBDE8004181EA030100F06CB9CA
:102F7000F0BCBDE8004170B500F018F9097EFC3ED8
:102F800000F007B881EA03014FF0000001F00041B2
:102F9000704781EA030100F057B9F0BCBDE8004179
:102FA0004FF0000021497047FFFDFBF9F7F5F4F2FF
:102FB000F0EEEDEBE9E8E6E4E3E1E0DEDDDBDAD8D4
:102FC000D7D5D4D3D1D0CFCDCCCBCAC8C7C6C5C432
:102FD000C2C1C0BFBEBDBCBBBAB9B8B7B6B5B4B349
:102FE000B2B1B0AFAEADACABAAA9A8A8A7A6A5A434
:102FF000A3A3A2A1A09F9F9E9D9C9C9B9A999998F8
:103000009797969595949393929191908F8F8E8E9A
:103010008D8C8C8B8B8A8989888887878685858427
:1030200084838382828181800000FF070000F87F13
:10303000B0FA80F310FA03F10AD0C3F11D0303F5CF
:1030400080634FEA41504FEA035202EBD1217047AF
:103050004FF0000070470000DFF848C170B51CEA6F
:10306000111E1EBF1CEA13159EEA0C0F95EA0C0FE9
:1030700000F06F8081EA030423EA4C134EEAD47E09
:1030800021EA4C1141F4801143F48013AE44A1FBBA
:10309000024CA0FB0365AEF17F7E361955EB0C05A3
:1030A000A1FB034C4CF10003A0FB021C16EB0C0629
:1030B000654153F10003094218BF46F0010613F4BD
:1030C000007F0BD14FEA03314FEA0530340341EA68
:1030D000155140EA16506FF003020AE04FEAC3218F
:1030E0004FEAC520F40241EA555140EA56506FF0CC
:1030F000020202EB2E4201EB025585EACE710AD0A4
:103100005FEA440C18BF24F0004450F1000041F184
:10311000000120EAD47040F2FE7C624500D270BD0E
:10312000A84214BF4FF080444FF04044002E08BF27
:103130000024BEF1806FA8BFA1F1C041BDE870407E
:1031400080F282804FF0000001F1C04101F00041A7
:1031500070479EEA0C0F0CEA131518BF95EA0C0F86
:1031600006D04FF0000081EA030E0EF0004170BD62
:1031700000F01CF88900013E00F007B800F009B823
:103180004FEA430C5FEA5C5C08D081EA030100F07F
:103190005BB84FEA410C5FEA5C5CF6D14FF000008F
:1031A000014970470000FF070000F87F0EF1020E92
:1031B0002EF0030E5EF8046B364205D4012A43EB71
:1031C000030515F5001F12D8012841EB010C1CF571
:1031D000001F0CD80ED14FEAD17C15F5001F0CEB67
:1031E0004C0C0CF1020C08BF4CEBD37C04E04FF00C
:1031F000080C01E04FEAD37C0CEB4C0526FA05F6EF
:1032000006F00706B6F1040C06D20EEB860CBDE8FC
:1032100070404CF0010C6047DFE80CF0090B020233
:103220004FF000414FF00000A1F5002170BD19469C
:103230001046012851EB010418BFD4F5001484BFD7
:10324000002001F0004170BD0808A0F500114FEA10
:103250003101704743004FEAD30C4FEA3C0C434026
:103260001FBF40070CF1605113F0FE4F70471CF078
:10327000006F03D100200CF0004170470CF00043B8
:1032800043EA507010B540EACC0000F090F800BF5F
:10329000000000924FEA0001FFF7D6BF4FF0004157
:1032A0004FF00000A1F50021704700004FF47F0CA3
:1032B0001CEAD0121EBF1CEAD11392EA0C0F93EA4B
:1032C0000C0F00F0478090EA010F48BF42F4807273
:1032D0004FF0004C4CEA00204CEA012102EB0302C3
:1032E000A0FB0113A2F50002002918BF43F001035F
:1032F0005B0028BF4FEA330342EB22425FEA132C04
:103300004CEBC2502EBFBCEB436FB2F57C0F704745
:103310004FEA036CBCF1004F08BF20F00100B2F58A
:103320007C0F38BF70470BD582F0FF0212F5803F4B
:10333000C8BF704700F1C040D8BF00F000407047E0
:1033400000F5000C5FEA4C0C48BF7047B0F1C0407C
:1033500000F073B890EA010F0CEAD11348BF42F4B1
:103360008072624538BF634504D280EA010000F0F4
:103370000040704710B500F01AF800BF8900013E08
:1033800000F007B800F009B85FEA410C5FEA1C6C76
:1033900008D080EA010000F050B85FEA400C5FEA14
:1033A0001C6CF6D14FF00040A0F5800070470EF184
:1033B000020E2EF0030E5EF8044B244204D44FEAB2
:1033C0004102B2F17F4F11D84FEA4003B3F17F4F72
:1033D0000CD80ED14FEAD07CB2F17F4F0CEB4C0CE5
:1033E0000CF1020C08BF4CEBD17C04E04FF0080C50
:1033F00001E04FEAD17C0CEB4C0324FA03F404F017
:103400000704B4F1040C06D20EEB840CBDE81040A6
:103410004CF0010C6047DFE80CF0070802024FF0A7
:103420000040A0F5800010BD0846420018BFD2F150
:10343000807288BF00F0004010BDFF2141EAD050EB
:10344000C0057047FDF777B80CF00F03092B08BFD4
:10345000082000F059800A2B0BD0082B18BF7047AA
:1034600008BF1CF0400F0AD04FF000004FF00001E1
:1034700070471CF0400F18BF4FF0004070471CF021
:10348000100F08D020F0704300F07F4242EAD301D1
:103490004FEA4370704700F0604021F07F4242EAFB
:1034A000000201F07F4040EA727070474FF0FF0C5D
:1034B0004CF4E06C1CEA11531CBF9CEA030C9445CD
:1034C000C2BFDA4201EB02517047002B0DD0BCF1B4
:1034D000000F0FD0002A01F00041A4BF41F0E041ED
:1034E00041F07F614FF00000704701F000414FF064
:1034F0000000704750EA01334FF09B0C18BF4CF0AE
:10350000806C7FF435AC70471CF4801F11D01CF424
:10351000E02F03D06FEACC31490070474FF04050A4
:10352000EFF3008222F0704242EA000282F3008848
:1035300070474FF0000070470102020304050607C0
:1035400008090A0B0C0D0E0F1010000000000000FF
:103550000000010203040607080900000000010240
:103560000304040000080000000000000002000145
:103570000000100002400000000000A00000000059
:1035800005400000000000C8000000000C400000E2
:103590000000409C00000000194000000020BCBE5C
:1035A0000000000034400000BFC91B8E0000000472
:1035B000B5400000504BCFD06607E2CF01000000BD
:1035C0006C4100003E8251AADFEEA73401000000EA
:1035D000D9420000DCB5A0E23A301F97FFFFFFFFA1
:1035E000B4450000FD25A0C8E9A3C14FFFFFFFFFC0
:1035F000FF3F00000000008000000000FF3F0000CF
:103600000000008000000000443600080000002098
:1036100028000000280100086C360008280000205F
:1036200038070000440100081C00000043000000AF
:10363000F8FFFFFF0C0000000E0000000F0000006C
:103640002E0000000000000000000000000000004C
:103650000000000000000000000000000100000069
:0C366000100000000000000000127A00C2
:04000005080000ED02
:00000001FF
